:02000000732863
:10000800803120007F08F700911D6F289111780832
:10001800303A03196F28240014082D39F6007608A1
:10002800F8005E281108F6007608F900151B15136C
:100038005A281108F6007608F9007908FF3A031DD6
:100048002B280130F6007608F300F4015A287308CB
:1000580003193D28F208031D3D287908F6007408A5
:100068004A3E86008701760881000130F60076084E
:10007800F4077408063A031D5A28F3010130F60004
:100088007608F2005A281108F6007608F9000630BA
:1000980074020318F40174084A3E860087010108B7
:1000A800BB250130F6007608F4076F28161C6F2868
:1000B80015166F287808093A03191628043A0319FF
:1000C8004728253A03196F28013A03191D28053ACC
:1000D80003194B285A2877082000FF000900AE2D85
:1000E80020002808AE002908AF002A08B000031035
:1000F8002F0D300DB1003108B4002B08AE002C08CC
:10010800AF002D08B00003102F0D300DB1003108DD
:10011800B300340803199C28330834020318A328B1
:100128003403FF3A3307AE0019302E02031CA3280C
:100138002B08A8002C08A9002D08AA0008003308DD
:1001480003190800340833020318B2283303FF3AAE
:100158003407AE0019302E02031808000630AE002E
:100168002E08B200AA1BB217AD1B3217A917FF3011
:10017800A805FF30A9050030AA05AC17FF30AB056C
:10018800FF30AC050030AD05330834020318EE2803
:100198000130AB35AC0DAD0D890BCD280130B30264
:1001A800330834060319E9280130B2023208073946
:1001B8000319E928CC280130AA36A90CA80C890B08
:1001C800E0280130AE002E08B407340833060319BE
:1001D8001329DF2834083302031813290130A835FE
:1001E800A90DAA0D890BF3280130B402330834068F
:1001F80003190F290130B2023208073903190F29F0
:10020800F2280130AD36AC0CAB0C890B0629013055
:10021800AE002E08B30734083306031D0529B21FA4
:100228002529FF30A806FF30A906FF30AA060130AD
:10023800A807003003180130A9070030031801305F
:10024800AA07321F3729FF30AB06FF30AC06FF3054
:10025800AD060130AB07003003180130AC070030A1
:1002680003180130AD07B2012808AB072908AC3DD7
:100278002A08AD3DAD1F5229FF30AB06FF30AC0652
:10028800FF30AD060130AB07003003180130AC0772
:10029800003003180130AD07B201B20A2B08A000E4
:1002A8002C08A1002D08A2003408AE002E08A300D7
:1002B8003208AF002F08A400F12320002008A8006E
:1002C8002108A9002208AA000800183020004A02C4
:1002D8000318462A18304D020318462A4A08BE0059
:1002E800BF013E08A0003F08A1003230A200003044
:1002F800A300642520002008C0002108C1000630A2
:10030800A6000030A7004B08C200C3014208A000A5
:100318004308A1000530A2000030A3006425200096
:100328002108A901A9072008A801A807522420002C
:1003380026084007F0002708413DF1004D08BE009F
:10034800BF013E08A0003F08A1003230A2000030E3
:10035800A300642520002008C0002108C100063041
:10036800A6000030A7004E08C200C3014208A00042
:100378004308A1000530A2000030A3006425200036
:100388002108A901A9072008A801A80752242000CC
:1003980026084007DC002708413DDD007009BE0043
:1003A8007109BF00BE0A0319BF0A5C083E07C000F6
:1003B8005D083F3DC100C136C00C70084007D80039
:1003C8007108413DD9004A08BE00BF01BE09BF09F6
:1003D800BE0A0319BF0A4D083E07A0003F080318CC
:1003E8003F0AA1003C30A2000030A3006425200091
:1003F8002008B03ED600FF30213DD7005708803A8C
:10040800FF0084307F02031D0B2A00305602031CB4
:10041800122AFF302000D6000330D70070092000D0
:10042800BE007109BF00BE0A0319BF0A5C083E0777
:10043800C0005D083F3DC100C136C00C4008A8009F
:100448004108A9009A2520002808AE002908AF0015
:100458002A08B0005708A901A9075608A801A80743
:10046800432520002808B1002908B2002A08B30053
:10047800482220002E08D0002F08D1003008D200D2
:10048800DA01DB01F201080020003108B40032086B
:10049800B5003308B6000310350D360DB700370820
:1004A800BC00BC08031D5F2A0030AE000030AF005E
:1004B8000030B00008002E08B4002F08B50030083E
:1004C800B6000310350D360DB7003708BD00BD085E
:1004D800031D752A0030AE000030AF000030B000B8
:1004E80008000030B9000030BA000030BB00893085
:1004F8003D07B4003408BC023108B4003208B50026
:100508003308B6001030B636B50CB40C890B872A00
:100518003408B7003708BD002E08B4002F08B5000E
:100528003008B6001030B636B50CB40C890B972AD3
:100538003408B7003708BD068030B4003408BD055C
:10054800B217FF30B105FF30B2050030B305AF1761
:10055800FF30AE05FF30AF050030B0051830B400ED
:100568003408B8000130B935BA0DBB0D890BB72A6C
:1005780030083302031DC62A2F083202031DC62A7B
:100588002E083102031CCF2A2E08B1022F08B23BD5
:100598003008B33B39140130B135B20DB30D890BB6
:1005A800D02A0130B802031DB62A3908A0003A083B
:1005B800A1003B08A2003C08B4003408A3003D0891
:1005C800B5003508A400F12320002008AE0021085A
:1005D800AF002208B000080020003508B90036082E
:1005E800BA003708BB0003103A0D3B0DBC003C08AD
:1005F800C200C208031D092B0030B8000030B70044
:100608000030B6000030B50008003508B9003608DB
:10061800BA003708BB001730BB36BA0CB90C890BC7
:10062800102B3908BC003C08BD00B617FF30B505D3
:10063800FF30B6050030B7053508BE003608BF00E4
:100648003708C000C1018E30C202C21F472B4208C2
:10065800803A8F3E0318392B0030B8000030B700BD
:100668000030B6000030B50008000130C136C00CBB
:10067800BF0CBE0C890B3A2B0130B9003908C207F0
:100688000319602B392B18304202031C5D2B0030F4
:10069800B8000030B7000030B6000030B5000800E0
:1006A8000130BE35BF0DC00DC10D890B552B013072
:1006B800C202C208031D542B3D0803196E2BBE0944
:1006C800BF09C009C109BE0A0319BF0A0319C00A34
:1006D8000319C10A4108B8004008B7003F08B6002E
:1006E8003E08B5000800710820005B02031D7E2B40
:1006F80070085A02031C882B5B085D02031D862BB9
:100708005A085C0203188E2B0030D3000030D40046
:100718000030C52B59085B02031D942B58085A0258
:100728000318AA2B5008A8005108A9005208AA00CB
:100738005308AB005408AC005508AD0074202000E5
:100748002808D3002908D4002A08C52B5B085902B9
:10075800031DB02B5A0858020318C62B5008B500C1
:100768005108B6005208B7005308B8005408B90039
:100778005508BA00822520003508D3003608D40071
:100788003708D5005308A0005408A1005508A20056
:10079800C82520002008AB002108AC002208AD00C5
:1007A800C030A8007F30A9004430AA00742020007F
:1007B8002808B5002908B6002A08B700F02220004A
:1007C8003608C401C4073508C301C3071A25200029
:1007D80091101C1521008C12080020002308031911
:1007E800FA2B220821042004031D0B2C0030A00042
:1007F8000030A1000030A20008000130A500250843
:10080800A3070130A236A10CA00C890B062CFE30E0
:1008180022050319242C012C0130A5002508A30763
:100828000130A007003003180130A1070030031879
:100838000130A2070130A236A10CA00C890B1F2C95
:10084800FF3022050319312C102C0130A30201308E
:10085800A035A10DA20D890B2C2CA11F292C231822
:100868003B2CFF30A0057F30A105FF30A205031007
:10087800A30C2308A500A601A7011030A535A60DD5
:10088800A70D890B422C2508A0042608A1042708D7
:10089800A204240803190800A21708002000AC01CC
:1008A800A71F5D2CA609A709A60A0319A70AAC0168
:1008B800AC0AA91F682CA809A909A80A0319A90A3A
:1008C8000130AA002A08AC06AD01AE0127082604AB
:1008D8000319972CAB01AB0AA71B7C2C0130A6355A
:1008E800A70D890B732C0130AA002A08AB07702CBE
:1008F8000130AD35AE0D890B7D2C27082902031D6B
:10090800872C26082802031C8E2C2608A8022708F4
:10091800A93B2D140130A736A60C890B8F2C01306A
:10092800AB02031D7C2C2C0803199F2CAD09AE09C2
:10093800AD0A0319AE0A2E08A701A7072D08A601BC
:10094800A6070800210099131908873970389900FB
:100958001908FC39023899000C108C140C158C11EC
:100968000C128C1623008C0122001D142100950105
:1009780024008C0122008C013630240095001614C6
:1009880040309200FF3020009B0025001308F0390A
:100998000C389300033020009C049111210091151C
:1009A8008B170B1702302000A2000430A100BA30C8
:1009B800A000A00BDD2CA10BDD2CA20BDD2C000070
:1009C8000800A62406302000C7004708CA00CB014B
:1009D800CC011230C7004708CD00CE01CF0101304D
:1009E800C7004708F2007208013A031DFC2C692170
:1009F800772302302000C9000430C800BA30C7008D
:100A0800C70B042DC80B042DC90B042D00000130A1
:100A18002000DA070030DB3D04305B02B0300319F8
:100A28005A02031CF72CDA01DB01F72C04302000F2
:100A38004402003003194302031C262DFF30C30073
:100A48000330C4004408C6004308C500C636C50CB8
:100A5800C636C50C45082500910020004308C5008E
:100A68000430C535890B352D30304505C6002500C5
:100A78001308CF3920004604250093000800200001
:100A8800AD01A91F4E2DA809A909A80A0319A90A89
:100A9800AD01AD0A2808A0002908A100A2018E30E6
:100AA800AB002B08A3002D08AC002C08A400F123F0
:100AB80020002008A8002108A9002208AA00080090
:100AC8002000A401A501201C6D2D2208A4072308DD
:100AD800A53D0130A235A30D890B6E2D0130A1363D
:100AE800A00C890B732D21082004031D672D2508F0
:100AF800A101A1072408A001A00708008030200058
:100B0800B7063808A8003908A9003A08AA00350825
:100B1800AB003608AC003708AD0074202000280868
:100B2800B5002908B6002A08B700080020002808E0
:100B3800A0002908A100A2018E30AB002B08A30059
:100B4800A401F12320002008A8002108A9002208F8
:100B5800AA000800F001F101F201F301F4014A30A2
:100B68008400003085001430D1252000E52CF500E4
:100B780024001418BC2D951375089100951BBF2DE2
:100B8800161C08001516080020002208210420045D
:100B9800031908008030A2060800640080010131B2
:060BA800890BD22D003480
:020000040001F9
:04000E00A4C9FFDEA4
:00000001FF
