:100000000EC01DC01CC01BC01AC019C018C017C02C
:1000100016C015C021C013C012C009C125C11124CA
:100020001FBECFE5D1E0DEBFCDBF10E0A0E6B0E05F
:1000300001C01D92A13BB107E1F702D09DC1E0CF05
:1000400078947AD084E2B2D0A3D08823E9F38DD01B
:1000500080936000C0D0F8CF1F920F920FB60F921E
:1000600011248F939F93EF93FF93809183008823B4
:1000700009F059C080918900882301F1809187009F
:10008000815080938700882309F04DC01092890029
:1000900010928400E0916100F0E080918500ED59BC
:1000A000FF4F8083809161008F5F8093610080911A
:1000B00061008032C0F11092610035C080918400EF
:1000C000882389F486B381FD2EC081E0809384006B
:1000D0001092850094E09093870098E090938600BA
:1000E0008093880020C0809187008150D1F486B32E
:1000F00081FF07C08091850090918800892B8093B3
:10010000850080918800880F809388008091860008
:10011000815080938600882319F481E080938900C0
:1001200083E080938700FF91EF919F918F910F90D3
:100130000FBE0F901F9018951092840010928300AC
:10014000B9989FB7F89489E889BD82E08ABD83BFDA
:1001500089B7806189BF12BE9FBF08951092830046
:10016000089581E0809383000895909162008091CA
:1001700061009817E1F3E92FF0E0ED59FF4F80811E
:100180009F5F90936200903210F010926200089589
:100190002091610081E090916200291709F480E0CC
:1001A0000895109261001092620008951092B000BC
:1001B00010929F0010928E0010928D0080938C0000
:1001C00087B3856087BBC29AC09AB89888EA8DB910
:1001D00080EF8EB9089590918D009F5F9F70209160
:1001E0008E009217E1F3E92FF0E0E157FF4F808393
:1001F00090938D00089590919F008091B000981782
:10020000D1F38091B0008F5F8F708093B000E09148
:10021000B000F0E0E056FF4F8081089520919F00EC
:100220009091B00081E0291709F480E008951F92B1
:100230000F920FB60F9211248F9310928B00109291
:100240008A00B898B29B02C0B09BFCCFB09902C0A4
:1002500088EF01C088EA8DB980EF8EB98F910F9039
:100260000FBE0F901F9018951F920F920FB60F920E
:1002700011248F939F93EF93FF9380918A00909125
:100280008B008230910509F445C08330910538F424
:10029000009789F08130910509F065C01DC0843058
:1002A000910509F440C08430910598F0853091059E
:1002B00009F059C041C08FB1882331F08FB18695C4
:1002C00090918C00891719F5789B43C081E090E0EC
:1002D00042C08FB18823D9F490918D0080918E0017
:1002E0009817A9F080918E008F5F8F7080938E0099
:1002F000E0918E00F0E0E157FF4F80818FB982E0FE
:1003000090E090938B0080938A00B89A13C088EA9B
:100310008DB910C083E090E090938B0080938A00A9
:10032000B8981FB81EC085E090E090938B00809332
:100330008A00B89880E716C080919F008F5F8F7009
:1003400080939F00E0919F008FB1F0E0E056FF4F57
:10035000808384E090E090938B0080938A001FB8A4
:10036000B89A8EE78EB9FF91EF919F918F910F9080
:0C0370000FBE0F901F901895F894FFCF5F
:00000001FF
