:100000000EC01DC01CC01BC01AC019C018C017C02C
:1000100016C015C037C013C012C01FC13BC1112488
:100020001FBECFE5D1E0DEBFCDBF10E0A0E6B0E05F
:1000300001C01D92A33BB107E1F702D0B3C1E0CFED
:100040001F9378948FD085E1C7D011E0B7D0882373
:1000500049F0A1D080936200843311F08C3211F406
:1000600010936000F1D0882389F3DBD08093610086
:1000700080916000882351F380916200C2D0109279
:100080006000E4CF1F920F920FB60F9211248F934E
:100090009F93EF93FF9380918500882309F059C0C7
:1000A00080918B00882301F1809189008150809399
:1000B0008900882309F04DC010928B0010928600B1
:1000C000E0916300F0E080918700EB59FF4F80835F
:1000D000809163008F5F8093630080916300803222
:1000E000C0F11092630035C080918600882389F4A6
:1000F00086B381FD2EC081E0809386001092870038
:1001000094E09093890098E09093880080938A000F
:1001100020C0809189008150D1F486B381FF07C04F
:100120008091870090918A00892B8093870080912D
:100130008A00880F80938A00809188008150809384
:100140008800882319F481E080938B0083E08093FA
:100150008900FF91EF919F918F910F900FBE0F90AB
:100160001F9018951092860010928500B9989FB73D
:10017000F89489E889BD82E08ABD83BF89B7806130
:1001800089BF12BE9FBF089510928500089581E037
:100190008093850008959091640080916300981782
:1001A000E1F3E92FF0E0EB59FF4F80819F5F9093DF
:1001B0006400903210F01092640008952091630062
:1001C00081E090916400291709F480E0089510926D
:1001D00063001092640008951092B2001092A10082
:1001E0001092900010928F0080938E0087B38560EC
:1001F00087BBC29AC09AB89888EA8DB980EF8EB949
:10020000089590918F009F5F9F70209190009217AA
:10021000E1F3E92FF0E0EF56FF4F808390938F00DA
:1002200008959091A1008091B2009817D1F3809128
:10023000B2008F5F8F708093B200E091B200F0E067
:10024000EE55FF4F808108952091A1009091B2005A
:1002500081E0291709F480E008951F920F920FB6EC
:100260000F9211248F9310928D0010928C00B898E9
:10027000B29B02C0B09BFCCFB09902C088EF01C016
:1002800088EA8DB980EF8EB98F910F900FBE0F90D5
:100290001F9018951F920F920FB60F9211248F93F3
:1002A0009F93EF93FF9380918C0090918D0082300B
:1002B000910509F445C08330910538F4009789F021
:1002C0008130910509F065C01DC08430910509F4A5
:1002D00040C08430910598F08530910509F059C0EF
:1002E00041C08FB1882331F08FB1869590918E00F7
:1002F000891719F5789B43C081E090E042C08FB127
:100300008823D9F490918F00809190009817A9F0DC
:10031000809190008F5F8F7080939000E0919000AB
:10032000F0E0EF56FF4F80818FB982E090E090932C
:100330008D0080938C00B89A13C088EA8DB910C0E4
:1003400083E090E090938D0080938C00B8981FB864
:100350001EC085E090E090938D0080938C00B8984B
:1003600080E716C08091A1008F5F8F708093A100FD
:10037000E091A1008FB1F0E0EE55FF4F808384E063
:1003800090E090938D0080938C001FB8B89A8EE710
:100390008EB9FF91EF919F918F910F900FBE0F90AB
:0803A0001F901895F894FFCF9F
:00000001FF
