:100000000EC01DC01CC01BC01AC019C018C017C02C
:1000100016C015C043C013C012C011C010C01124B7
:100020001FBECFE5D1E0DEBFCDBF10E0A0E6B0E05F
:1000300001C01D92A536B107E1F712D0CAC0E0CFCA
:100040006AE070E0B2D008C08FE19EE40197F1F75A
:1000500000C000006150704061157105A9F7089556
:1000600054D0B99A1FBC10BE80B7806880BF80B7DB
:10007000806180BF80B7816080BF1CBC8FE68EBD71
:100080008DBD789484EF91E0DBDF8FE39CE90197ED
:10009000F1F700C000008CE250D0F7CF1F920F9212
:1000A0000FB60F9211248F939F938091600081303F
:1000B00029F5809161008150F9F48091630090915D
:1000C000640080FF02C0C09A01C0C09880916300A4
:1000D0009091640096958795909364008093630057
:1000E0008091620081508093620080916200882339
:1000F00011F41092600083E0809361009F918F91D2
:100100000F900FBE0F901F90189510926000C09A2C
:10011000B89A9FB7F89489E889BD82E08ABD83BF09
:1001200089B7806189BF12BE9FBF0895909160001A
:1001300081E0913009F080E0089590916000913065
:10014000E1F393E0909361009AE090936200992725
:1001500087FD9095880F991F92609093640080931B
:10016000630081E0809360000895EF92FF92CF9347
:10017000DF93E82EE7017E01F92EE70101C0DDDF04
:1001800089918823E1F7DF91CF91FF90EF90089557
:10019000CF93DF93EC0101C0D0DFFE012196849163
:1001A0008823D1F7DF91CF910895AA1BBB1B51E1A2
:1001B00007C0AA1FBB1FA617B70710F0A61BB70BD7
:1001C000881F991F5A95A9F780959095BC01CD017C
:0601D0000895F894FFCF32
:00000001FF
