:100000000EC028C027C026C025C024C023C022C0DF
:1000100021C020C04CC01EC01DC008C127C1112472
:100020001FBECFE5D1E0DEBFCDBF10E0A0E6B0E05F
:10003000E4E9F3E002C005900D92A236B107D9F7CA
:1000400010E0A2E6B0E001C01D92A439B107E1F7CB
:1000500018D09EC1D5CF882319F0813069F409C02A
:1000600080916300882351F01092630080916200B8
:1000700008958091630008958FEF089583EC0895AB
:1000800008951F9384D082E26BE270E040E450E078
:10009000B8D0789411E0A7D08823E9F391D0982FB5
:1000A000937CC9F78093620010936300F4CF1F9292
:1000B0000F920FB60F9211248F939F93EF93FF939C
:1000C00080918600882309F059C080918C00882394
:1000D00001F180918A00815080938A00882309F081
:1000E0004DC010928C0010928700E0916400F0E007
:1000F00080918800EA59FF4F8083809164008F5F70
:1001000080936400809164008032C0F1109264009A
:1001100035C080918700882389F486B381FD2EC085
:1001200081E0809387001092880094E090938A0089
:1001300098E09093890080938B0020C080918A0082
:100140008150D1F486B381FF07C0809188009091DF
:100150008B00892B8093880080918B00880F80937F
:100160008B0080918900815080938900882319F445
:1001700081E080938C0083E080938A00FF91EF916F
:100180009F918F910F900FBE0F901F901895109216
:10019000870010928600B9989FB7F89489E889BDC6
:1001A00082E08ABD83BF89B7806189BF12BE9FBFCD
:1001B000089510928600089581E080938600089546
:1001C00090916500809164009817E1F3E92FF0E0C9
:1001D000EA59FF4F80819F5F90936500903210F045
:1001E0001092650008952091640081E0909165006F
:1001F000291709F480E008951092640010926500B8
:10020000089580938F0070939100609390005093B5
:1002100093004093920087B3856087BBC29AC09ACF
:10022000B89888EA8DB980EF8EB908951F920F9221
:100230000FB60F9211248F9310928E0010928D00A2
:10024000B898B29B02C0B09BFCCFB09902C088EFB7
:1002500004C08FEF8093600088EA8DB980EF8EB97B
:100260008F910F900FBE0F901F9018951F920F92B5
:100270000FB60F9211242F933F934F935F936F9379
:100280007F938F939F93AF93BF93EF93FF9380914F
:100290008D0090918E0082309105E1F183309105BF
:1002A00038F4009781F08130910509F060C01FC0DB
:1002B00084309105C1F18430910598F08530910525
:1002C00009F055C039C08FB1882331F08FB18695C0
:1002D00090918F00891741F4789B3FC081E090E0B6
:1002E0003EC08FB1882319F088EA8DB923C0809170
:1002F0006000E0919000F091910009958FB98FEF27
:100300008093600082E090E090938E0080938D0057
:10031000B89A10C083E090E090938E0080938D0097
:10032000B8981FB822C085E090E090938E0080932B
:100330008D00B89880E71AC0809160008F3F11F45B
:100340008FB109C0809160006FB1E0919200F0918F
:10035000930009958FEF8093600084E090E0909384
:100360008E0080938D001FB8B89A8EE78EB9FF91EA
:10037000EF91BF91AF919F918F917F916F915F911D
:100380004F913F912F910F900FBE0F901F90189596
:04039000F894FFCF0F
:02039400FF0068
:00000001FF
