:100000000EC028C027C026C025C024C023C022C0DF
:1000100021C020C01FC01EC01DC080C09FC01124B1
:100020001FBECFE5D1E0DEBFCDBF10E0A0E6B0E05F
:10003000ECEAF2E002C005900D92A236B107D9F7C2
:1000400010E0A2E6B0E001C01D92A936B107E1F7C9
:100050002DD02AC1D5CF882339F488B5863031F028
:1000600088B58D3029F008958FEF089581E00895C7
:1000700080E00895882349F4613019F486E088BD52
:100080000895662311F48DE088BD08956AE070E05C
:10009000F7D008C08FE19EE40197F1F700C000009F
:1000A0006150704061157105A9F7089587B38A61A1
:1000B00087BB83E28ABD8DE083BF8CE989BD86E082
:1000C00088BD87E56BE270E04AE350E012D0789497
:1000D00088B5863059F4C39AC49884EF91E0D6DF8E
:1000E000C398C49A84EF91E0D1DFF2CFC398C4984B
:1000F000EFCF809364007093660060936500509327
:1001000068004093670087B3856087BBC29AC09A36
:10011000B89888EA8DB980EF8EB908951F920F9232
:100120000FB60F9211248F93109263001092620009
:10013000B898B29B02C0B09BFCCFB09902C088EFC8
:1001400004C08FEF8093600088EA8DB980EF8EB98C
:100150008F910F900FBE0F901F9018951F920F92C6
:100160000FB60F9211242F933F934F935F936F938A
:100170007F938F939F93AF93BF93EF93FF93809160
:1001800062009091630082309105E1F18330910526
:1001900038F4009781F08130910509F060C01FC0EC
:1001A00084309105C1F18430910598F08530910536
:1001B00009F055C039C08FB1882331F08FB18695D1
:1001C00090916400891741F4789B3FC081E090E0F2
:1001D0003EC08FB1882319F088EA8DB923C0809181
:1001E0006000E0916500F091660009958FB98FEF8E
:1001F0008093600082E090E09093630080936200BF
:10020000B89A10C083E090E09093630080936200FE
:10021000B8981FB822C085E090E090936300809367
:100220006200B89880E71AC0809160008F3F11F497
:100230008FB109C0809160006FB1E0916700F091CB
:10024000680009958FEF8093600084E090E09093C0
:100250006300809362001FB8B89A8EE78EB9FF9151
:10026000EF91BF91AF919F918F917F916F915F912E
:100270004F913F912F910F900FBE0F901F901895A7
:10028000AA1BBB1B51E107C0AA1FBB1FA617B707BC
:1002900010F0A61BB70B881F991F5A95A9F78095D8
:0C02A0009095BC01CD010895F894FFCFAB
:0202AC00FF0051
:00000001FF
