:100000000EC028C027C026C025C024C023C022C0DF
:1000100021C020C01FC01EC01DC0A3C0C2C011246B
:100020001FBECFE5D2E0DEBFCDBF10E0A0E6B0E05E
:10003000E2EFF2E002C005900D92A236B107D9F7C7
:1000400010E0A2E6B0E001C01D92AD36B107E1F7C5
:1000500056D04DC1D5CF882319F0813071F407C037
:1000600088B5863061F088B58D3031F40AC0809152
:10007000640090916500089508958FEF089581E0E0
:10008000089580E00895882319F0813039F50EC075
:10009000613011F486E003C0662301F58DE088BD70
:1000A000B99A10926300109262000895613029F4A9
:1000B000C39AC49881E090E006C0623049F4C49AC3
:1000C000C39882E090E09093650080936400089567
:1000D000C398C498109265001092640008956AE075
:1000E00070E0F1D008C08FE19EE40197F1F700C005
:1000F00000006150704061157105A9F7089587B33C
:100100008A6187BB83E28ABD8DE083BF8CE989BDAC
:1001100086E088BD89E66BE270E043E450E00CD0F5
:10012000789480916200909163000097D1F78CEDF4
:1001300095E0D5DFB998F5CF8093680070936A0099
:100140006093690050936C0040936B0087B38560A7
:1001500087BBC29AC09AB89888EA8DB980EF8EB9E9
:1001600008951F920F920FB60F9211248F93109241
:10017000670010926600B898B29B02C0B09BFCCF9B
:10018000B09902C088EF04C08FEF8093600088EAC6
:100190008DB980EF8EB98F910F900FBE0F901F9089
:1001A00018951F920F920FB60F9211242F933F9321
:1001B0004F935F936F937F938F939F93AF93BF936F
:1001C000EF93FF93809166009091670082309105D4
:1001D000E1F18330910538F4009781F08130910589
:1001E00009F060C01FC084309105C1F184309105D1
:1001F00098F08530910509F055C039C08FB188233A
:1002000031F08FB1869590916800891741F4789B01
:100210003FC081E090E03EC08FB1882319F088EAAA
:100220008DB923C080916000E0916900F0916A006F
:1002300009958FB98FEF8093600082E090E09093F2
:10024000670080936600B89A10C083E090E09093B6
:10025000670080936600B8981FB822C085E090E0E0
:100260009093670080936600B89880E71AC08091E9
:1002700060008F3F11F48FB109C0809160006FB1B1
:10028000E0916B00F0916C0009958FEF8093600016
:1002900084E090E090936700809366001FB8B89A5E
:1002A0008EE78EB9FF91EF91BF91AF919F918F91A2
:1002B0007F916F915F914F913F912F910F900FBE62
:1002C0000F901F901895AA1BBB1B51E107C0AA1FD6
:1002D000BB1FA617B70710F0A61BB70B881F991FE7
:1002E0005A95A9F780959095BC01CD010895F89491
:0202F000FFCF3E
:0202F200FF000B
:00000001FF
