:100000000EC015C014C013C012C011C010C00FC064
:100010000EC00DC00CC00BC00AC009C008C011241E
:100020001FBECFE5D2E0DEBFCDBF12D037C0E8CFD4
:100030006AE070E01FD008C08FE19EE40197F1F7FD
:1000400000C000006150704061157105A9F7089566
:10005000B89A12BE1ABC13BE8AB580648ABD8AB52E
:1000600082608ABD83B7816083BF8FE689BD80E0EF
:1000700090E00895AA1BBB1B51E107C0AA1FBB1F3C
:10008000A617B70710F0A61BB70B881F991F5A9524
:10009000A9F780959095BC01CD010895F894FFCF04
:00000001FF
