:040000000128F82FAC
:10099000640080010131890BC92C0034F401F50198
:1009A000701CD62C7208F4077308F53D0130F2353F
:1009B000F30D890BD72C0130F136F00C890BDC2CB0
:1009C00071087004031DD02C7508F101F10774083B
:1009D000F001F00708007C2506302000C800003038
:1009E000C900CA01CB01CC01CD011230CE000030CC
:1009F000CF00D001D101D201D301032D240014185E
:100A0000941A072DB425372720009119FE2C15259F
:100A100001302000D6070030D73D3C305606570441
:100A2000031D042DD601D701042D20005708F10124
:100A3000F1075608F001F007A030F2000530F3008E
:100A4000CE247108F901F9077008F801F807790850
:100A5000F101F1077808F001F0079A262000550807
:100A6000F101F1075408F001F00721262000911050
:100A70001C1521008C120730F7007D30F600F60BB4
:100A80003F2DF70B3F2D21008C160800F501F601D4
:100A9000710870040319752DF701F70AF11B5A2D1F
:100AA0000130F035F10D890B512D0130F40074083F
:100AB000F7074E2D0130F535F60D890B5B2D7108CA
:100AC0007302031D652D70087202031C6C2D7008E3
:100AD000F2027108F33B75140130F136F00C890B0A
:100AE0006D2D0130F702031D5A2D7608F101F10733
:100AF0007508F001F0070800210099137830990477
:100B00001908FC39023899000C108C140C158C1142
:100B10000C128C1623008C0122001D14210095015B
:100B200024008C0122008C0136302400950016141C
:100B300040309200FF3020009B0025001308F03960
:100B40000C389300033020009C0491112100911572
:100B50008B170B178230F100DD30F000F00BAE2D5B
:100B6000F10BAE2DB32D080024001108F000F101A7
:100B70007008F2007108F300F401F5017508803A7D
:100B8000FF0080307F02031DC72D0330740203185D
:100B9000ED2D24001418941EDE2D1108F000F10133
:100BA0007435483E860087017008C03F7108C13F18
:100BB000141094120130F4070030F53D0130F407B1
:100BC0000030F53D7508803AFF0080307F02031D3C
:100BD000EB2D03307402031CC92DF401F5017508D7
:100BE000803AFF0080307F02031DF82D033074022D
:100BF00003181E2E24001418941E0F2E1108F00046
:100C0000F10174354E3E860087017008C03F7108BF
:100C1000C13F141094120130F4070030F53D01304B
:100C2000F4070030F53D7508803AFF0080307F0200
:100C3000031D1C2E03307402031CFA2D2000911199
:100C4000080071087004031D2B2EFF302500910051
:100C5000303093040800013070067104031D362EF5
:100C6000F43025009100CF30930508000230700663
:100C70007104031D412EE73025009100CF3093050C
:100C80000800033070067104031D4C2ED830250077
:100C90009100CF3093050800043070067104031DE5
:100CA000572EC73025009100CF309305080005303E
:100CB00070067104031D622EB230250091003030A1
:100CC00093040800063070067104031D6D2E9A30DF
:100CD00025009100CF30930508000730700671049D
:100CE000031D782E7A3025009100CF30930508003F
:100CF000083070067104031D832EFF30250091001B
:100D0000303093040800093070067104031D902EE2
:100D10000A30250091001308CF39203893000800CD
:100D20000A3070067104031D080025009101CF30C0
:100D300093050800200021087102031DA12E200840
:100D40007002031CAB2E71084702031DA92E700808
:100D500046020318AE2ED401D5010800F401F501B6
:100D60007508803AFF0080307F02031DB92E0A30DB
:100D700074020318F32E7435203E86008701403F2D
:100D8000F200413FF30071087302031DC92E700881
:100D900072020318E42E7435023E203E860087015D
:100DA000403FF200413FF30073087102031DDA2E49
:100DB000720870020318E42E7408013E2000D4006B
:100DC0000030753DD500F32E0130F4070030F53DBD
:100DD0007508803AFF0080307F02031DF12E0A3033
:100DE0007402031CBB2E0A30F4000030F5007508B5
:100DF000803AFF0080307F02031D002F1330740201
:100E0000031808007435203E86008701403FF20039
:100E1000413FF30071087302031D102F7008720226
:100E20000318322F7435023E203E86008701403F72
:100E3000F200413FF30073087102031D212F720875
:100E400070020318322F7409F2007509F300F20AD8
:100E50000319F30A7208133E2000D4000030733DDA
:100E6000D50008000130F4070030F53DF72E0430BE
:100E7000483E8600870120004908F101F107480833
:100E8000F001F0071030F2000E30F300CE247008AD
:100E9000F8007108F90020004B08F101F1074A0839
:100EA000F001F0073C30F2000030F300CE2470086F
:100EB0007807FA007108793DFB00403F7A07FC0093
:100EC000413F7B3DFD007C082000DE007D08DF0007
:100ED00004304E3E860087014F08F101F1074E08AD
:100EE000F001F0071030F2000E30F300CE2470084D
:100EF000F8007108F90020005108F101F1075008CD
:100F0000F001F0073C30F2000030F300CE2470080E
:100F10007807FA007108793DFB00403F7A07FC0032
:100F2000413F7B3DFD007C082000D8007D08D900B2
:100F30005E09F8005F09F900F80A0319F90A580870
:100F40007807DA005908793DDB001330F0000030F3
:100F5000F1005B08F301F3075A08F201F207462596
:100F600071082000DD01DD077008DC01DC07E0010D
:100F7000E101E001E1016108803AFF0080307F0279
:100F8000031DC42F143060020318F22F20006108E3
:100F9000F101F1076008F001F0075D08F301F307C4
:100FA0005C08F201F207CE2420005E087007F8000A
:100FB0005F08713DF9006035203E860087017808A2
:100FC000C03F7908C13F0130E0070030E13D6108D2
:100FD000803AFF0080307F02031DF02F1430600242
:100FE000031CC62F2000D601D701D401D50108006B
:100FF00020308400003085003830C8242000EB2CDD
:020000040001F9
:04000E00A4C9FFDEA4
:00000001FF
