:100000000EC01DC01CC01BC01AC019C018C017C02C
:1000100016C015C014C013C012C0A8C0C3C011249C
:100020001FBECFE5D1E0DEBFCDBF20E0A0E6B0E04F
:1000300001C01D92A838B207E1F723D03EC1E0CF3E
:1000400080E363D08AE187BB18BA109287001092D0
:100050008600789408952FE986E891E02150804049
:100060009040E1F700C0000018BA2FE986E891E05F
:10007000215080409040E1F700C0000080E188BB43
:100080000895DEDF6894882481F86894992494F8B0
:100090000F2EFAE1AF2EF02D6894CC24C1F8D12CAC
:1000A0000F2EF3E0EF2EF12CF02D03E610E0C1E06F
:1000B000D0E06894BB24B3F850D08823F1F03AD054
:1000C000823051F0833071F0813091F4D093870009
:1000D000C0938600B8BA11C0D0928700C092860043
:1000E00088BA0BC0F0928700E092860098BA05C0EB
:1000F0001093870000938600A8BA809186009091A3
:1001000087000397C9F6A7DFD4CF10927200109230
:10011000730010926000109261008093850087B395
:10012000856087BBC29AC09AB89888EA8DB980EF7B
:100130008EB9089590917300809172009817D1F351
:10014000809172008F5F8F7080937200E0917200D7
:10015000F0E0EC58FF4F808108952091730090915A
:10016000720081E0291301C080E008951F920F9270
:100170000FB60F9211248F9310928400B898B29BFF
:1001800002C0B09BFCCFB09903C088EF8DB902C00C
:1001900088EA8DB980EF8EB98F910F900FBE0F90C6
:1001A0001F9018951F920F920FB60F9211248F93E4
:1001B0009F93EF93FF9380918400823009F451C0A4
:1001C00028F4882359F0813069F16EC0843009F435
:1001D00050C000F1853009F453C066C08FB1882348
:1001E00031F09FB196958091850098130EC0789B51
:1001F00004C081E08093840003C084E08093840085
:100200001FB8B89A8EE78EB94FC088EA8DB980E7DB
:100210008EB94AC08FB1882329F088EA8DB980E76A
:100220008EB942C090916100809160009817A1F052
:10023000809160008F5F8F7080936000E09160001C
:10024000F0E0EE59FF4F80818FB982E08093840007
:10025000B89A80E78EB928C088EA8DB980E78EB950
:1002600023C083E080938400B8981FB88EE78EB9CE
:100270001BC085E080938400B89880E78EB914C0D5
:10028000809173008F5F8F7080937300E091730093
:100290008FB1F0E0EC58FF4F808384E080938400BE
:1002A0001FB8B89A8EE78EB9FF91EF919F918F9109
:0E02B0000F900FBE0F901F901895F894FFCF7F
:00000001FF
