:02000000732863
:10000800803120007F08F200911D6F28911173083C
:10001800303A03196F28240014082D39F1007108AB
:10002800F3005E281108F1007108F400151B151380
:100038005A281108F1007108F4007408FF3A031DEA
:100048002B280130F1007108F700F8015A287708C9
:1000580003193D28F608031D3D287408F1007808A7
:10006800453E86008701710881000130F100710862
:10007800F8077808063A031D5A28F7010130F100FD
:100088007108F6005A281108F1007108F4000630CA
:1000980078020318F8017808453E860087010108B0
:1000A800C8230130F1007108F8076F28161C6F2863
:1000B80015166F287308093A03191628043A031904
:1000C8004728253A03196F28013A03191D28053ACC
:1000D80003194B285A2872082000FF0009007428C9
:1000E800F601F701F801453084000030850014302E
:1000F800D5232000592B200025082404031D8A2815
:10010800FF30A0000330A1008C230800013020003C
:1001180024062504031D96281630A0000330A100EC
:100128008C2308000230200024062504031DA22881
:100138008E30A0000230A1008C230800033020007C
:1001480024062504031DAE282D30A0000230A1008E
:100158008C2308000430200024062504031DBA2837
:10016800E230A0000130A1008C23080005302000F7
:1001780024062504031DC628A530A0000130A100CF
:100188008C2308000630200024062504031DD228ED
:100198007130A0000130A1008C2308000730200036
:1001A80024062504031DDE284430A0000130A100E8
:1001B8008C2308000830200024062504031DEA28A3
:1001C8001D30A0000130A1008C2308000930200058
:1001D80024062504031DF628F930A0000030A100EC
:1001E8008C2308000A30200024062504031D022958
:1001F800D930A0000030A1008C2308000B3020006B
:1002080024062504031D0E297630A0000030A10025
:100218008C2308000C30200024062504031D1A290D
:10022800A130A0000030A1008C2308000D30200070
:1002380024062504031D26298830A0000030A100CB
:100248008C2308000E30200024062504031D3229C3
:100258007130A0000030A1008C2308000F3020006E
:1002680024062504031D3E295B30A0000030A100B0
:100278008C2308001030200024062504031D4A2979
:100288004730A0000030A1008C2308001130200066
:1002980024062504031D56293430A0000030A1008F
:1002A8008C2308001230200024062504031D62292F
:1002B8002130A0000030A1008C230800133020005A
:1002C80024062504031D6E291030A0000030A1006B
:1002D8008C2308001430200024062504031D080080
:1002E8000030A0000030A1008C23080020004E0838
:1002F8002902031D89294D082802031D89294C0854
:100308002702031D89294B082602031C9B2929085B
:100318005202031D992928085102031D992927080B
:100328005002031D992926084F0203189E29D3015C
:10033800D40108004B08AA004C08AB004D08AC00DB
:100348004E08AD005408A101A1075308A001A00759
:100358005808A301A3075708A201A207AA2320004F
:100368002008AE002108AF00B001B1012E08AA078D
:100378002F08AB3D3008AC3D3108AD3D2D08B90024
:100388002C08B8002B08B7002A08B6003608AA00BF
:100398003708AB003808AC003908AD005708AE0084
:1003A8005808AF00B001B1012E08AA072F08AB3DCD
:1003B8003008AC3D3108AD3D2D08B5002C08B4001F
:1003C8002B08B3002A08B2002908803AFF00390830
:1003D800803A7F02031DFA2938082802031DFA29EA
:1003E80037082702031DFA29360826020318012AAE
:1003F8000130D3070030D43D9E293508803AFF00EC
:100408002908803A7F02031D132A28083402031D95
:10041800132A27083302031D132A26083202031859
:100428000800FC2920004708A700A8014508A900E2
:10043800AA012908A0002A08A1001030A2000E3045
:10044800A300AA2320002008AB002108AC0046081E
:10045800AD00AE012D08A0002E08A1003C30A2007E
:100468000030A300AA23200020082B07AF00210892
:100478002C3DB00027082F07CB002808303DCC00C2
:10048800CD01CC1BCD034D08CE004A08A700A8011A
:100498004808A900AA012908A0002A08A1001030CC
:1004A800A2000E30A300AA2320002008AB002108D8
:1004B800AC004908AD00AE012D08A0002E08A1002F
:1004C8003C30A2000030A300AA23200020082B07FC
:1004D800AF0021082C3DB00027082F07CF002808BF
:1004E800303DD000D101D01BD1035108D2004B09B7
:1004F800A7004C09A800A70A0319A80A4F0827074C
:10050800B1005008283DB2002730A0000030A100FB
:100518003208A301A3073108A201A2072223200061
:100528002108D801D8072008D701D707D501D60157
:10053800F601080020005608A101A1075508A001EE
:10054800A007D030A2000230A300AA232000200870
:10055800BC002108BD00BE01BF013F08A9003E083C
:10056800A8003D08A7003C08A6007A21003020001A
:100578005402153003195302031CD02A5309BA0038
:100588005409BB00BA0A0319BB0A3A08273EC0003F
:1005980000303B3DC100D62A5408C101C1075308A9
:1005A800C001C0074108A501A5074008A401A40788
:1005B8007F20200091101C1521008C1208002100BA
:1005C800991319088739703899001908FC390238C5
:1005D80099000C108C140C158C110C128C1623001D
:1005E8008C0122001D142100950124008C01220099
:1005F8008C01363024009500161440309200FF30EC
:1006080020009B0025001308F0390C3893000330B4
:1006180020009C049111210091158B170B170230B3
:100628002000A2000430A100BA30A000A00B1A2BB1
:10063800A10B1A2BA20B1A2B000008002000A50101
:10064800A601210820040319522BA401A40AA11B06
:10065800372B0130A035A10D890B2E2B0130F50069
:100668007508A4072B2B0130A535A60D890B382B4F
:1006780021082302031D422B20082202031C492BB8
:100688002008A2022108A33B25140130A136A00CA2
:10069800890B4A2B0130A402031D372B2608A10120
:1006A800A1072508A001A0070800E32206302000C2
:1006B800C2004208C500C601C7011230C200420884
:1006C800C800C901CA010130C2004208F600760814
:1006D800013A031D702B16229E2206302000C4000A
:1006E8001330C300B130C200C20B782BC30B782B78
:1006F800C40B782B7F2B01302000D5070030D63D66
:10070800783055065604031D6B2BD501D6016B2B8B
:1007180020002108A3002008A200A336A20CA336BB
:10072800A20C22082500910020002008A200043015
:10073800A235890B9C2B30302205A3002500130815
:10074800CF39200023042500930008002000A401CD
:10075800A501201CB32B2208A4072308A53D0130BE
:10076800A235A30D890BB42B0130A136A00C890B3F
:10077800B92B21082004031DAD2B2508A101A107D1
:100788002408A001A0070800F00024001418C92BB1
:10079800951370089100951BCC2B161C0800151694
:0E07A8000800640080010131890BD62B00345B
:020000040001F9
:04000E00A4C9FFDEA4
:00000001FF
